S00F000068612D626C636E2E7372656380
S113000019C033C032C031C030C033C82EC02DC077
S11300102CC02BC02AC029C028C052C826C025C065
S113002024C023C022C021C020C01FC01EC01DC0C8
S11300301CC01BC011241FBECFEFCDBFDFE3DEBF4A
S11300401EE3A0E0BEE3EBEBF5E102C005900D92E8
S1130050A830B107D9F72EE3A8E0BEE301C01D9292
S1130060AE36B207E1F79FD887CACACF8093143E51
S11300709093153EFFCFCF93DF93C2E2DEE388E493
S1130080FE0111928A95E9F7FDD64C981EA280E4F0
S11300908093683E1092653E8BE08093550480E225
S11300A08BB91092003EDF91CF9108959091223E3A
S11300B0992339F09091353E992369F080E090E0DE
S11300C00895E2E2FEE380836183428353832483C1
S11300D03583CF010895E5E3FEE3F5CFCF92DF92B8
S11300E0EF92FF920F931F93CF93DF938C01FC0148
S11300F0F180D080C2E2DEE3E12C82E0C82E888168
S1130100882379F0D81641F0F816A9F09981903433
S113011091F0FFEFFF1679F06396FEE3C834DF0732
S113012071F78E2DDF91CF911F910F91FF90EF907A
S1130130DF90CF90089591E0F81290E0E92AF80159
S11301409281913039F0EA81FB81B8018C819D81E3
S11301500995E2CF8E83DF82C8869A8BDDCFFC01BE
S1130160808186836783408781E0828B08958091B4
S1130170483E813009F008958091693E8823D9F37F
S11301804091653E4530B8F350E020915D3E30E04B
S11301902B5F3F4F4217530791F08E3061F74C9815
S11301A01092483E80E48093683E1092653E8BE056
S11301B08093550480E28BB91092003E089569E55E
S11301C07EE386E19EE3BCD91092653E86E19EE320
S11301D085CFEF92FF920F931F93CF93DF9380917C
S11301E0483E813039F0DF91CF911F910F91FF90FC
S11301F0EF9008959091693E9E30A9F79091573EF3
S1130200911110C0C8E2DEE3EE24E3948BE0F82EF3
S113021000E28C85811116C063968EE3CE34D80734
S113022011F3F7CFF8941092563E8093483E109203
S1130230693E8BE08093550480E28BB91092003EB6
S11302407894D1CF1C861C811B5F412F50E0BE01E6
S11302508AE49EE375D91123F9F28AE49EE33EDF32
S11302608111C1CFF8941093573E1092563EE092FC
S1130270483E1092693EF09255040BB91092003E2C
S11302807894CACF8091493E811124C04B989091B3
S1130290573E9923C9F02091483E213009F46EC09D
S11302A098F0223009F064C09091673E992309F4D4
S11302B09BC0993009F494C09091583E90FD92C02F
S11302C04C9A96959093583E91E0811190E09093CA
S11302D0493E08954B9A9091483E913009F440C0AC
S11302E018F19230B9F59AB190722091673E31E0DD
S11302F0320F3093673E222309F456C0293009F4A3
S113030076C02091663E422F469521E030E091115F
S113031002C020E030E03695322F2227379527950A
S1130320242B2093663ED0CF559B3AC09091683ED3
S113033091509093683E9111C7CF91E09093483EBD
S11303401092693E9BE09093550490E29BB9109201
S1130350003EBACF89E591E089DE8091493EB4CF71
S11303609091693E9E3060F59F5F9093693EACCF5B
S113037081E491E07BDE8091493EA6CFE091563E38
S1130380E91710F19E13A0CF2091593E90914A3E57
S11303902917F1F19FEF9093563E1092653E94CF4A
S11303A09FE39093683E90CF992309F48DCF4C98A6
S11303B01092483E90E49093683E1092653EC2CFFE
S11303C09FEF9093003E80CF91E09E0F9093563E16
S11303D0F0E0EE5DF14C90A59093583E4C9A74CFAA
S11303E09091583E4C986DCF9091583E6ACF992386
S11303F0F1F2E091653EEC30D1F291E09E0F9093E2
S1130400653EF0E0EE5DF14C9091663E97AB95CF82
S113041020915A3E90914B3E2913BCCF1092563EE8
S11304201092573EBACF8091483E882379F01092BB
S1130430550480E28BB981E08093493E1092673E77
S113044082E08093483E1092003E089580E48093B9
S1130450683E0895CF93DF93DC011496CD91DC912F
S113046015971296ED91FC911397818119969C91A1
S11304701997992311F190E041E00AC0232F2183B9
S113048084839F5F440F19962C9119979217A8F4AF
S11304901A96ED91FC911B9726E0929FE00DF11DB9
S11304A01124633141F0362F17962C91179724238A
S11304B029F320E0E4CF3281F7CF82E08B8743E059
S11304C06FEFCE01DF91CF914ACECF93DF93DC0162
S11304D01496CD91DC9115971296ED91FC9113979A
S11304E0328119968C911997882391F090E01A968D
S11304F0ED91FC911B9786E0989FE00DF11D11246E
S1130500118234839F5F19962C911997921778F36F
S113051083E08B8743E06FEFCE01DF91CF911FCE55
S1130520EF92FF920F931F93CF93DF93AC01EB01F4
S11305308B818032C9F1803339F0DF91CF911F91E3
S11305400F91FF90EF9008958C818823B1F3288157
S1130550EA0108811981DB011596815090E0069625
S1130560680F791F3D91F8018381811105C012C084
S113057035969381992371F090819033C9F79181D5
S1130580291711F09F3FA1F792813913F1CFEA01A6
S1130590EC87FD87A617B70729F7DF91CF911F9145
S11305A00F91FF90EF900895FA01E480F58099810E
S11305B0E70188819813C1CFFB018581EA0188870F
S11305C086818F8399859923C1F0EB012796A0E05A
S11305D0B0E020E030E08991FA0102851385F8014A
S11305E0EA0FFB1F82832F5F3F4FFA019185169616
S11305F0E92FF0E02E173F0774F38A019E5F492F1D
S113060050E06B5F7F4FC7010B969AD7E80188854E
S1130610823059F0833009F090CFC801DF91CF9137
S11306201F910F91FF90EF9050CF63E1C801DF91CC
S1130630CF911F910F91FF90EF900CCF9F92AF92AB
S1130640BF92CF92DF92EF92FF920F931F93CF93BB
S1130650DF93EC01CC80DD80EA81FB81B680A2804F
S113066089858823F1F1E62EF12C912C12C0E382C6
S11306709E2DEA81FB8127813085A901490F511DF7
S1130680CA0172D7F8018283A482F3949985F9167A
S113069098F40A851B8546E0F49E000D111D112473
S11306A0F801BE10E4CF9381911102C09394E1CF7D
S11306B09150F8019383DDCF9916F9F0992389F0CD
S11306C080E0EA85FB8556E0859FE00DF11D11244D
S11306D09281F601E80FF11D95878F5F998589173F
S11306E080F3DF91CF911F910F91FF90EF90DF90F6
S11306F0CF90BF90AF909F900895BA94EA81FB8108
S1130700878190858B0D911D2FD7992051F320E07F
S1130710EA85FB8546E0249FE00DF11D1124B38298
S113072082832F5F9985291798F3C8CF0F931F935E
S1130730CF93DF93FC01A281B3811A968D919C9192
S11307401B97892BD9F019968C9119978823B1F0AE
S11307500481158186818F5F868319969C911997F0
S1130760891789F090E0EF011A962D913C911B971F
S1130770820F931FF9D68F83F8018487DF91CF917D
S11307801F910F910895168280E090E0ECCFCF93F3
S1130790DF93DC011C96ED91FC911D97309799F045
S11307A0238164811C961D921C921D972330F9F0BD
S11307B068F0EC01253091F0263029F488858230E8
S11307C051F1833001F1DF91CF9108952130D9F7B0
S11307D024E0FC012087DF91CF913CCE84E0888720
S11307E0CD012CDF63E1CE01DF91CF9133CEFC014B
S11307F02085223059F0233031F724E0208763E14B
S1130800DF91CF9127CECD0191DFECCF25E020877A
S1130810DF91CF915ACE60E0CD0110DFE3CF7F921C
S11308208F929F92AF92BF92CF92DF92EF92FF92FC
S11308300F931F93CF93DF936C017B01DC0113961D
S1130840BC9066E070E08B2D90E03FD5EC016EE04B
S113085070E081E090E039D58C01F701838181114A
S11308600DC014C0853031F49481D60116968C9154
S1130870891748F035968381882341F0813091F7B8
S113088084818431B8F380E090E071C0F801E082A3
S1130890F182C282D382C287D387B186980140E9AC
S11308A052E060E2D6018C9101DC5C01E8018C83AA
S11308B09D8385E088871E82F6018285938554D6C0
S11308C08F83D60116968C91169790E00197179610
S11308D02D913C911897820F931F46D6782E8985C7
S11308E0882301F1812C912CE12CF12CD8011A964A
S11308F0CD91DC911B97C80DD91D7A82F6018481B4
S113090095818E0D9F1D30D68D83FFEFEF1AFF0A60
S113091086E0880E911CD80119968C9190E0E81617
S1130920F90624F380E2E5018987F80181858E5F69
S11309308A8787818C8781858823B1F0D5011D96AC
S113094040E050E020E030E0E801EA85FB85E40F78
S1130950F51F82818D932F5F3F4F4A5F5F4F8985DB
S113096090E02817390784F3C801AFDDC801DF918F
S1130970CF911F910F91FF90EF90DF90CF90BF9098
S1130980AF909F908F907F9008950F931F93CF9374
S1130990DF930097C1F18C01DC0119969C91992396
S11309A009F450C0C0E021E0D2E00DC0681780F522
S11309B06F5FD48360838581EDD320E0F801918556
S11309C0CF5FC917D0F4D8011A96ED91FC911B970B
S11309D0B6E0CB9FE00DF11D112481816081861763
S11309E079F3948191509483992301F320E0D80101
S11309F019969C91CF5FC91730F3F8018085843034
S1130A00B1F0853051F0DF91CF911F910F9108958E
S1130A10861780F66150D483CDCF2223A1F383E0DF
S1130A20F8018087DF91CF911F910F9108952223C0
S1130A3051F382E0D80118968C93DF91CF911F91E6
S1130A400F910895D80118968C91843091F38530D4
S1130A50D1F6E5CFEF92FF920F931F93CF93DF93DD
S1130A60EC01DB0113968C911397803609F445C091
S1130A70803339F0DF91CF911F910F91FF90EF9068
S1130A800895FB0144814423A9F33081088119812D
S1130A90D80113968C91DB011596415050E04A5FC2
S1130AA05F4F640F751F9AE0E92EF12C4D91882356
S1130AB0D1F0982FF80104C035969381992399F0C9
S1130AC020812033C9F72181321711F02F3FA1F77C
S1130AD022814213F1CF913001F1923009F090E07C
S1130AE09F83E886F986A617B70701F7DF91CF91B0
S1130AF01F910F91FF90EF900895EC81FD81119665
S1130B009C91119780819813B5CF15968C918F8302
S1130B108AE090E088879987ADCF91E0E1CFBF92DA
S1130B20CF92DF92EF92FF920F931F93CF93DF93B5
S1130B308C017B01FC01B18061E070E08B2D90E0C1
S1130B40C4D36C016DE070E081E090E0BED3EC01B1
S1130B50F7018381882321F0359683818111FCCFAD
S1130B60E882F9820A831B83CB86DC86BA869E01DF
S1130B704AE255E060E6F801808198DA8C839D832F
S1130B802FEF2E831F821886198620E6FC01218709
S1130B902A852287CE01DF91CF911F910F91FF907B
S1130BA0EF90DF90CF90BF9008951F93CF93DF9382
S1130BB0EC01892BA1F12E816F81261781F18885A3
S1130BC09985009749F521112EC06E831F82EA8111
S1130BD0FB8184819581888799878A85882389F018
S1130BE010E0EA81FB81812F90E0880F991F228118
S1130BF03381820F931F98D21F5F8A856E811817E5
S1130C0080F3EC81FD81638743E06FEF8C819D81EC
S1130C10DF91CF911F91A3CA019788879987DF91AC
S1130C20CF911F9108951E828AE090E0888799876A
S1130C3060E0D3CF0895CF92DF92EF92FF920F93AB
S1130C401F93CF93DF937C018FD4C82EC7010196E5
S1130C508BD4C82F67E070E090E037D3D82ED92F1B
S1130C6067E070E081E090E030D38C0120E030E078
S1130C704AE156E060E38C2D19DADC01F801E082E8
S1130C80F182C483D582D68382839383CC23C1F03B
S1130C90ED2DFD2F20E030E091E061E052E0918302
S1130CA0928313821482462F022E01C0440F0A94A9
S1130CB0EAF7458356832F5F3F4F37962C1778F317
S1130CC01A961C921A9780E319968C93C801DF91A7
S1130CD0CF911F910F91FF90EF90DF90CF900895E7
S1130CE00F931F93CF93DF93EC011DD29C81992323
S1130CF009F457C020E064E073E0A4E652E0ED811B
S1130D00FE8197E0299FE00DF11D11244281358178
S1130D10382391E009F490E03181931709F455C028
S1130D2034813F5F3483353009F452C0942F1082EC
S1130D3091113CC0413009F44EC041110BC03381C4
S1130D40363940F43F5F3383343609F468C03639AA
S1130D5009F452C092832F5F3C81231780F20A81E9
S1130D601B813323F1F060E090E0ED81FE8187E0A8
S1130D70989FE00DF11D11242081222369F0D801F0
S1130D80A60FB11D80E1989FA0011124242B1B966E
S1130D902C9310826F5F3C819F5F931730F3611136
S1130DA034C0DF91CF911F910F910895913091F646
S1130DB04111D0CF33813436B8F4908392832F5FBE
S1130DC03C81231708F49BCFCACF1482942FAFCF52
S1130DD091831482ACCF1382508392832F5F3C8122
S1130DE0231708F48CCFBBCF608392832F5F3C81A1
S1130DF0231708F484CFB3CF7083A38392832F5F28
S1130E003C81231708F47BCFAACFF801628743E023
S1130E106FEFC801DF91CF911F910F91A0C970832B
S1130E2092832F5F3C81231708F469CF98CF82B156
S1130E3086FB882780F917990BC03599846034990B
S1130E4088603399806150998062529980640895D2
S1130E508260F3CFE0E0FAE080818E7F80838CE0D3
S1130E60858387E7818381E083838FEF86A387A3CC
S1130E7080818160808310A612A614A611A613A6F1
S1130E8015A608954D9A4598E0E4F4E08BE0858B2F
S1130E904C98449A84E0848B89B1837F89B988B162
S1130EA08C6088B90895CF93DF9388ED84BF109246
S1130EB06100E0E4FAE080E890E08487958791E0BF
S1130EC09683958387E0818383E0808388E08093A1
S1130ED0160480931704809335048093340480931C
S1130EE033048093500480935204A0E0B4E020E4DF
S1130EF012962C93129720E812962C931297E0E204
S1130F00F4E050E2528340E142838283C0E4D4E0BF
S1130F109A8334E03A8316965C93169716964C930C
S1130F20169716968C931697368322E0268396831B
S1130F302E8311965C93119711964C9311971196E9
S1130F408C933183218391832983DF91CF9182CF45
S1130F50843071F138F08031A1F08032E9F18830C9
S1130F60D9F00895813079F1823009F58091010A30
S1130F708F7D8093010A80E1662311F1809305043B
S1130F8008958091010A8D7F8093010A82E066238F
S1130F9059F08093250408958091010A8B7F8093F2
S1130FA0010A84E06111F5CF809326040895089521
S1130FB08091010A8F7E8093010A88E06111DECF5F
S1130FC08093060408958091010A8F7B8093010A1F
S1130FD080E26623A9F3D2CF8091010A8E7F8093A9
S1130FE0010A81E0662301F3D4CFE62FF0E0EB5E43
S1130FF0FF4F9081843029F138F0803189F08032BC
S113100081F18830A9F00895813019F18230C1F45A
S113101090932B0A8091010A80628093010A0895BB
S113102090932A0A8091010A82608093010A0895AC
S113103090932C0A8091010A84608093010A089598
S113104008959093290A8091010A80618093010A8E
S1131050089590932D0A8091010A80648093010A77
S113106008959093280A8091010A81608093010A6F
S113107008951F920F920FB60F9211242F933F934E
S11310804F935F936F937F938F939F93AF93BF938C
S1131090EF93FF935D9B03C080E28BB9C4D9FF91AA
S11310A0EF91BF91AF919F918F917F916F915F91DC
S11310B04F913F912F910F900FBE0F901F90189555
S11310C01F920F920FB60F9211242F933F934F93B9
S11310D05F936F937F938F939F93AF93BF93EF939C
S11310E0FF9381E08093460A8091003E87FD05C00E
S11310F08F5F8431A1F08093003EBCD0FF91EF91CB
S1131100BF91AF919F918F917F916F915F914F911B
S11311103F912F910F900FBE0F901F901895109232
S1131120003EB0D8EACF83CE1F93CF93DF9300D095
S1131130CDB7DEB7162F42E050E0BC01CE010196D8
S11311400FD21130D9F070F0123031F460E089819F
S1131150FFDE61E08A81FCDE0F900F90DF91CF917A
S11311601F91089560E08A81F3DE60E08981F0DEFA
S11311700F900F90DF91CF911F91089560E08A81C5
S1131180E7DE61E08981E4DE0F900F90DF91CF917B
S11311901F910895633110F061E0DACE6623E9F31C
S11311A06231D1F322CF8FEF000000000000000075
S11311B0000000000000000000000000000000002B
S11311C00000000000000000815071F76CDE53D76E
S11311D065EA75E98FEA95E922DB80930C3E9093EA
S11311E00D3E83E090E027DD80930A3E90930B3E12
S11311F06CE775E98FE995E992DC8093083E90935A
S1131200093E789404C080910E3E81112BC00000E9
S113121000000000000000000000000000000000CA
S113122000000000000000000000000000008091A9
S11312300C3E90910D3EABDA9AD7CBD78091113EFC
S1131240882309F31092113E80910C3E90910D3E3B
S11312509CDB8091083E9091093EA7DC80910E3E74
S11312608823A9F210920E3E80910A3E90910B3E83
S113127037DDCDCF8091123E9091133E01968D3093
S113128023E09207D1F08093123E9093133E809115
S11312900F3E9091103E01968D3023E0920729F085
S11312A080930F3E9093103E089510920F3E10923B
S11312B0103E81E080930E3E08951092123E1092EB
S11312C0133E81E08093113EE2CF0F931F93CF939F
S11312D0DF93869F8001879F100D969F100D112428
S11312E0C8010DD0EC01009721F0A80160E070E086
S11312F030D1CE01DF91CF911F910F9108950F93BB
S11313001F93CF93DF938230910510F482E090E035
S1131310E0916C3EF0916D3E20E030E0A0E0B0E062
S1131320309719F14081518102811381481759077F
S1131330C8F08417950769F4109731F012960C934E
S1131340129713961C9327C000936C3E10936D3E26
S113135022C02115310519F04217530718F49A01D8
S1131360BD01EF01DF01F801DBCF21153105F9F0F3
S1131370281B390B2430310580F48A819B81611547
S1131380710521F0FB018283938304C080936C3E3A
S113139090936D3EFE01329644C0FE01E20FF31FAE
S11313A08193919322503109288339833AC0209143
S11313B06A3E30916B3E232B41F42091033E3091E1
S11313C0043E20936A3E30936B3E2091013E30915F
S11313D0023E2115310541F42DB73EB74091053E3B
S11313E05091063E241B350BE0916A3EF0916B3E12
S11313F0E217F307A0F42E1B3F0B2817390778F0E8
S1131400AC014E5F5F4F2417350748F04E0F5F1F46
S113141040936A3E50936B3E8193919302C0E0E007
S1131420F0E0CF01DF91CF911F910F910895CF93F9
S1131430DF93009709F481C0FC0132971282138272
S1131440A0916C3EB0916D3E109781F42081318162
S1131450820F931F20916A3E30916B3E2817390703
S113146051F5E0936A3EF0936B3E67C0ED0120E0D6
S113147030E0CE17DF0740F44A815B819E014115BD
S11314805105F1F0EA01F5CFC283D3834081518144
S1131490840F951FC817D90759F488819981840F3F
S11314A0951F0296808391838A819B818283938393
S11314B02115310529F4E0936C3EF0936D3E3DC057
S11314C0E901EA83FB8349915991C40FD51FEC17B5
S11314D0FD0761F480819181840F951F0296E901D3
S11314E088839983828193818A839B83E0E0F0E0FF
S11314F012968D919C911397009719F0FD01DC01D0
S1131500F7CF8D919C9111979D012E5F3F4F820FD4
S1131510931F20916A3E30916B3E2817390769F476
S1131520309729F410926C3E10926D3E02C01282E4
S11315301382A0936A3EB0936B3EDF91CF910895DE
S1131540FB01DC0102C001900D9241505040D8F7DC
S11315500895DC0101C06D9341505040E0F70895B7
S113156060507C4E0C94A00A03D080819927089582
S10F1570FC01E050FC4E0895F894FFCFFD
S113157C30821101003082130100308214030030D8
S113158C82210100308223010030822403000000F8
S113159C000000B0010000E80330820103000000E9
S11215AC0000007601010102000B0A0005050092
S10B15BBFF00006E3E20000059
S9030000FC
