S00F000068612D626C636E2E7372656380
S11300000C943E000C945B000C945B000C945B001D
S11300100C945B000C949A080C945B000C945B00A9
S11300200C945B000C945B000C945B000C945B00E0
S11300300C945B000C94C2080C945B000C945B0061
S11300400C945B000C945B000C945B000C945B00C0
S11300500C945B000C945B000C945B000C945B00B0
S11300600C945B000C945B000C945B000C945B00A0
S11300700C945B000C945B000C945B0011241FBE79
S1130080CFEFCDBFDFE3DEBF18E3A0E0B8E3ECEFD2
S1130090F6E102C005900D92A830B107D9F728E324
S11300A0A8E0B8E301C01D92A338B207E1F70E94AB
S11300B041090C94480B0C940000809316389093DB
S11300C01738FFCFCF93DF93C4E2D8E38BE5FE016B
S11300D011928A95E9F70E94A2074C9819AE80E420
S11300E080937D3810927A388BE08093550480E2B7
S11300F08BB910920038DF91CF91089590912438F4
S1130100992359F0909137389923C9F090914A383E
S11301109923C1F080E090E00895A0E0B0E093E17D
S11301209A9FF0019B9FF00D1124EC5DF74C8083A6
S113013061834283538324833583CF010895A1E0EF
S1130140B0E0EDCFA2E0B0E0EACFCF92DF92EF9241
S1130150FF920F931F93CF93DF937C01FC011181D6
S1130160D080C4E2D8E300E082E0C82E88818823EE
S113017071F0D81639F01817A1F09981903489F0EC
S11301801F3F79F06396F8E3CD35DF0779F7802FC9
S1130190DF91CF911F910F91FF90EF90DF90CF905F
S11301A0089591E0181390E0092BF70192819130A2
S11301B029F48E83DF82C8869A8BE4CFEA81FB819F
S11301C0B7018C819D810995DDCFFC0180818683F7
S11301D06783408781E0828B089580915D38813008
S11301E009F0089580917E388823D9F340917A38B4
S11301F04530B8F350E02091723830E02B5F3F4F28
S11302004217530791F0803161F74C9810925D3892
S113021080E480937D3810927A388BE08093550483
S113022080E28BB91092003808956EE678E388E195
S113023098E30E942C0B10927A3888E198E30C948E
S1130240A500EF92FF920F931F93CF93DF938091BA
S11302505D38813039F0DF91CF911F910F91FF907C
S1130260EF90089590917E389031A9F790916C3871
S1130270911132C0CAE2D8E3EE24E3948BE0F82E65
S113028000E28C85811106C0639688E3C336D807E3
S1130290C1F7E1CF1C861C811B5F412F50E0BE01DA
S11302A08FE598E30E942C0B112371F38FE598E3FB
S11302B00E94A5008111CFCFF89410936C3810924E
S11302C06B38E0925D3810927E38F09255040BB989
S11302D0109200387894D8CFF89410926B388093A9
S11302E05D3810927E388BE08093550480E28BB9A0
S11302F0109200387894AFCF80915E38811124C079
S11303004B9890916C389923C9F020915D38213035
S113031009F470C098F0223009F065C090917C38DF
S1130320992309F49DC0993009F496C090916D38D1
S113033090FD94C04C9A969590936D3891E08111FC
S113034090E090935E3808954B9A90915D38913087
S113035009F441C018F19230B9F59AB19072209124
S11303607C3831E0320F30937C38222309F458C0B2
S1130370293009F478C020917B38422F469521E03A
S113038030E0911102C020E030E03695322F222770
S113039037952795242B20937B38D0CF559B3CC091
S11303A090917D38915090937D389111C7CF91E011
S11303B090935D3810927E389BE09093550490E2C0
S11303C09BB910920038BACF89E591E00E945D0094
S11303D080915E38B3CF90917E38903168F59F5FFD
S11303E090937E38ABCF81E491E00E945D008091D0
S11303F05E38A4CFE0916B38E91710F19E139ECFBD
S113040020916E3890915F382917F1F19FEF909306
S11304106B3810927A3892CF9FE390937D388ECFC9
S1130420992309F48BCF4C9810925D3890E4909303
S11304307D3810927A38C0CF9FEF909300387ECFEA
S113044091E09E0F90936B38F0E0EC5DF74C93AD28
S113045090936D384C9A72CF90916D384C986BCFC5
S113046090916D3868CF9923F1F2E0917A38EC30AD
S1130470D1F291E09E0F90937A38F0E0E259F74C74
S113048090917B38908393CF20916F38909160380E
S11304902913BCCF10926B3810926C38BACF80916C
S11304A05D38882379F01092550480E28BB981E09D
S11304B080935E3810927C3882E080935D3810928D
S11304C00038089580E480937D380895CF93DF93B6
S11304D0DC011496CD91DC9115971296ED91FC9167
S11304E01397818119969C911997992311F190E0A2
S11304F041E00AC0232F218384839F5F440F199610
S11305002C9119979217A8F41A96ED91FC911B97C8
S113051026E0929FE00DF11D1124633141F0362F46
S113052017962C911797242329F320E0E4CF3281E6
S1130530F7CF82E08B8743E06FEFCE01DF91CF915D
S11305400C94E500CF93DF93DC011496CD91DC91FC
S113055015971296ED91FC911397328119968C910F
S11305601997882391F090E01A96ED91FC911B97CE
S113057086E0989FE00DF11D1124118234839F5F62
S113058019962C911997921778F383E08B8743E09F
S11305906FEFCE01DF91CF910C94E500EF92FF92C3
S11305A00F931F93CF93DF93AC01EB018B818032C8
S11305B0C9F1803339F0DF91CF911F910F91FF90F2
S11305C0EF9008958C818823B1F32881EA01088192
S11305D01981DB011596815090E00696680F791F0A
S11305E03D91F8018381811105C012C03596938134
S11305F0992371F090819033C9F79181291711F0F3
S11306009F3FA1F792813913F1CFEA01EC87FD876F
S1130610A617B70729F7DF91CF911F910F91FF908C
S1130620EF900895FA01E480F5809981E7018881CB
S11306309813C1CFFB018581EA01888786818F8366
S113064099859923C1F0EB012796A0E0B0E020E062
S113065030E08991FA0102851385F801EA0FFB1F46
S113066082832F5F3F4FFA0191851696E92FF0E0C0
S11306702E173F0774F38A019E5F492F50E06B5F8A
S11306807F4FC7010B960E942C0BE80188858230AE
S113069061F0833009F08FCFC801DF91CF911F91B2
S11306A00F91FF90EF900C94A20263E1C801DF91D7
S11306B0CF911F910F91FF90EF900C9466029F923F
S11306C0AF92BF92CF92DF92EF92FF920F931F935C
S11306D0CF93DF93EC01CC80DD80EA81FB81B6808F
S11306E0A2808985882309F43FC0E62EF12C912C41
S11306F013C0E3829E2DEA81FB8127813085A90105
S1130700490F511DCA010E94400BF8018283A48243
S1130710F3949985F91698F40A851B8546E0F49EAE
S1130720000D111D1124F801BE10E3CF9381911126
S113073002C09394E0CF9150F8019383DCCF9916D3
S1130740F9F0992389F080E0EA85FB8556E0859FDE
S1130750E00DF11D11249281F601E80FF11D95873A
S11307608F5F9985891780F3DF91CF911F910F9146
S1130770FF90EF90DF90CF90BF90AF909F9008953F
S1130780BA94EA81FB81878190858B0D911D0E942B
S1130790400B992049F320E0EA85FB8546E0249F3D
S11307A0E00DF11D1124B38282832F5F99852917EF
S11307B098F3C7CF0F931F93CF93DF93FC01A281CC
S11307C0B3811A968D919C911B97892BE1F0199610
S11307D08C9119978823B9F00481158186818F5FE4
S11307E0868319969C911997891791F090E0EF01EF
S11307F01A962D913C911B97820F931F0E94400BD8
S11308008F83F8018487DF91CF911F910F91089511
S1130810168280E090E0EBCFCF93DF93DC011C964F
S1130820ED91FC911D97309799F0238164811C967A
S11308301D921C921D97233011F168F0EC012530B4
S113084099F0263029F48885823081F1833021F1B2
S1130850DF91CF9108952130D9F724E0FC0120875E
S1130860DF91CF910C94660284E08887CD010E94C9
S11308705F0363E1CE01DF91CF910C946602FC012A
S11308802085223069F0233019F724E0208763E1C2
S1130890DF91CF910C946602CD010E94DA03E9CF77
S11308A025E02087DF91CF910C94A20260E0CD0176
S11308B00E945F03DECF7F928F929F92AF92BF928E
S11308C0CF92DF92EF92FF920F931F93CF93DF9318
S11308D06C017B01DC011396BC9066E070E08B2D0B
S11308E090E00E94EF09EC016EE070E081E090E09E
S11308F00E94EF098C01F701838181110DC014C09E
S1130900853031F49481D60116968C91891748F07C
S113091035968381882341F0813091F78481843135
S1130920B8F380E090E076C0F801E082F182C28200
S1130930D382C287D387B18698014EEC52E060E23D
S1130940D6018C910E947E005C01E8018C839D831A
S113095085E088871E82F601828593850E94400B7C
S11309608F83D60116968C91169790E0019717966F
S11309702D913C911897820F931F0E94400B782E63
S11309808985882309F1812C912CE12CF12CD80143
S11309901A96CD91DC911B97C80DD91D7A82F60168
S11309A0848195818E0D9F1D0E94400B8D83FFEFE6
S11309B0EF1AFF0A86E0880E911CD80119968C91D3
S11309C090E0E816F9061CF380E2E5018987F80156
S11309D081858E5F8A8787818C8781858823B1F0A2
S11309E0D5011D9640E050E020E030E0E801EA85C2
S11309F0FB85E40FF51F82818D932F5F3F4F4A5F84
S1130A005F4F898590E02817390784F3C8010E9455
S1130A10A202C801DF91CF911F910F91FF90EF9037
S1130A20DF90CF90BF90AF909F908F907F9008956C
S1130A300F931F93CF93DF930097C9F18C01DC01CF
S1130A4019969C91992309F451C0C0E021E0D2E0A9
S1130A500EC0681788F56F5FD483608385810E9418
S1130A60360920E0F8019185CF5FC917D0F4D80189
S1130A701A96ED91FC911B97B6E0CB9FE00DF11D0A
S1130A80112481816081861779F394819150948334
S1130A909923F9F220E0D80119969C91CF5FC917E8
S1130AA030F3F80180858430B1F0853051F0DF9166
S1130AB0CF911F910F910895861778F66150D483D2
S1130AC0CCCF2223A1F383E0F8018087DF91CF917B
S1130AD01F910F910895222351F382E0D8011896B3
S1130AE08C93DF91CF911F910F910895D80118969F
S1130AF08C91843091F38530D1F6E5CFEF92FF925B
S1130B000F931F93CF93DF93EC01DB0113968C912A
S1130B101397803609F445C0803339F0DF91CF91C3
S1130B201F910F91FF90EF900895FB01448144239E
S1130B30A9F3308108811981D80113968C91DB01C6
S1130B401596415050E04A5F5F4F640F751F9AE05D
S1130B50E92EF12C4D918823D1F0982FF80104C08F
S1130B6035969381992399F020812033C9F7218107
S1130B70321711F02F3FA1F722814213F1CF9130A8
S1130B8001F1923009F090E09F83E886F986A61778
S1130B90B70701F7DF91CF911F910F91FF90EF906D
S1130BA00895EC81FD8111969C9111978081981391
S1130BB0B5CF15968C918F838AE090E088879987CA
S1130BC0ADCF91E0E1CFBF92CF92DF92EF92FF924F
S1130BD00F931F93CF93DF938C017B01FC01B180B2
S1130BE061E070E08B2D90E00E94EF096C016DE0F4
S1130BF070E081E090E00E94EF09EC01F70183814D
S1130C00882321F0359683818111FCCFE882F98213
S1130C100A831B83CB86DC86BA869E014EE755E0A9
S1130C2060E6F80180810E947E008C839D832FEF13
S1130C302E831F821886198620E6FC0121872A85C7
S1130C402287CE01DF91CF911F910F91FF90EF90FA
S1130C50DF90CF90BF9008951F93CF93DF93EC0163
S1130C60892BB1F12E816F81261791F188859985A1
S1130C70009759F5211130C06E831F82EA81FB81F0
S1130C8084819581888799878A85882391F010E0EB
S1130C90EA81FB81812F90E0880F991F22813381A3
S1130CA0820F931F0E94F9081F5F8A856E811817AF
S1130CB078F3EC81FD81638743E06FEF8C819D8144
S1130CC0DF91CF911F910C94E50001978887998754
S1130CD0DF91CF911F9108951E828AE090E088876A
S1130CE0998760E0D1CF0895CF92DF92EF92FF927F
S1130CF00F931F93CF93DF937C010E94400BC82E68
S1130D00C70101960E94400BC82F67E070E090E095
S1130D100E94EF09D82ED92F67E070E081E090E0BF
S1130D200E94EF098C0120E030E043E756E060E3E5
S1130D308C2D0E947E00DC01F801E082F182C483E4
S1130D40D582D68382839383CC23C1F0ED2DFD2FEE
S1130D5020E030E091E061E052E0918392831382DD
S1130D601482462F022E01C0440F0A94EAF74583E9
S1130D7056832F5F3F4F37962C1778F31A961C92A1
S1130D801A9780E319968C93C801DF91CF911F9134
S1130D900F91FF90EF90DF90CF9008950F931F93E2
S1130DA0CF93DF93EC010E94F7089C81992309F407
S1130DB057C020E064E073E0A4E652E0ED81FE81D8
S1130DC097E0299FE00DF11D1124428135813823DC
S1130DD091E009F490E03181931709F455C034810E
S1130DE03F5F3483353009F452C0942F108291113F
S1130DF03CC0413009F44EC041110BC03381363937
S1130E0040F43F5F3383343609F469C0363909F45A
S1130E1052C092832F5F3C81231780F20A811B8189
S1130E203323F1F060E090E0ED81FE8187E0989F4C
S1130E30E00DF11D11242081222369F0D801A60FB1
S1130E40B11D80E1989FA0011124242B1B962C93A3
S1130E5010826F5F3C819F5F931730F3611134C040
S1130E60DF91CF911F910F910895913091F6411127
S1130E70D0CF33813436B8F4908392832F5F3C8192
S1130E80231708F49BCFCACF1482942FAFCF91833A
S1130E901482ACCF1382508392832F5F3C8123173B
S1130EA008F48CCFBBCF608392832F5F3C812317E0
S1130EB008F484CFB3CF7083A38392832F5F3C81E4
S1130EC0231708F47BCFAACFF801628743E06FEFC2
S1130ED0C801DF91CF911F910F910C94E5007083AD
S1130EE092832F5F3C81231708F468CF97CF82B198
S1130EF086FB882780F917990BC03599846034994B
S1130F008860339980615099806252998064089511
S1130F108260F3CFE0E0FAE080818E7F80838CE012
S1130F20858387E7818381E083838FEF86A387A30B
S1130F3080818160808310A612A614A611A613A630
S1130F4015A608954D9A4598E0E4F4E08BE0858B6E
S1130F504C98449A84E0848B89B1837F89B988B1A1
S1130F608C6088B90895CF93DF9388ED84BF109285
S1130F706100E0E4FAE080E890E08487958791E0FE
S1130F809683958387E0818383E0808388E08093E0
S1130F90160480931704809335048093340480935B
S1130FA033048093500480935204A0E0B4E020E41E
S1130FB012962C93129720E812962C931297E0E243
S1130FC0F4E050E2528340E142838283C0E4D4E0FF
S1130FD09A8334E03A8316965C93169716964C934C
S1130FE0169716968C931697368322E0268396835B
S1130FF02E8311965C93119711964C931197119629
S11310008C933183218391832983DF91CF910C9435
S11310108A07843071F138F08031A1F08032E9F12F
S11310208830D9F00895813079F1823009F58091C2
S1131030010A8F7D8093010A80E1662311F1809378
S1131040050408958091010A8D7F8093010A82E04E
S1131050662359F08093250408958091010A8B7FBB
S11310608093010A84E06111F5CF809326040895EA
S113107008958091010A8F7E8093010A88E06111AE
S1131080DECF8093060408958091010A8F7B8093BC
S1131090010A80E26623A9F3D2CF8091010A8E7FF0
S11310A08093010A81E0662301F3D4CFE62FF0E0B8
S11310B0E95EFF4F9081843029F138F0803189F066
S11310C0803281F18830A9F00895813019F182309D
S11310D0C1F490932B0A8091010A80628093010AE3
S11310E0089590932A0A8091010A82608093010AEC
S11310F0089590932C0A8091010A84608093010AD8
S1131100089508959093290A8091010A806180933B
S1131110010A089590932D0A8091010A80648093B6
S1131120010A08959093280A8091010A81608093AE
S1131130010A08951F920F920FB60F9211242F9354
S11311403F934F935F936F937F938F939F93AF934B
S1131150BF93EF93FF935D9B04C080E28BB90E9421
S11311604F02FF91EF91BF91AF919F918F917F912A
S11311706F915F914F913F912F910F900FBE0F9000
S11311801F9018951F920F920FB60F9211242F9350
S11311903F934F935F936F937F938F939F93AF93FB
S11311A0BF93EF93FF9381E08093460A80910038C8
S11311B087FD05C08F5F8431A9F0809300380E94B9
S11311C0C409FF91EF91BF91AF919F918F917F914E
S11311D06F915F914F913F912F910F900FBE0F90A0
S11311E01F901895109200380E947C01E8CF0C944F
S11311F077071F93CF93DF9300D0CDB7DEB7162FB9
S113120042E050E0BC01CE0101960E943C0B11303B
S1131210F9F080F0123041F460E089810E940908FD
S113122061E08A810E9409080F900F90DF91CF91AD
S11312301F91089560E08A810E94090860E0898115
S11312400E9409080F900F90DF91CF911F9108958C
S113125060E08A810E94090861E089810E9409088E
S11312600F900F90DF91CF911F910895633118F083
S113127061E00C9409086623E1F36231C9F30C942C
S113128056088FEF0000000000000000000000007E
S1131290000000000000000000000000000000004A
S11312A000000000815071F70E94B3070E946200A1
S11312B066EE76E980EF96E90E945B0480930E382F
S11312C090930F3885E090E00E94740680930C3868
S11312D090930D386DEB76E980EE96E90E94E30574
S11312E080930A3890930B3864E976E987EB96E9A2
S11312F00E94E3058093083890930938789404C0D9
S113130080911038811137C00000000000000000F7
S113131000000000000000000000000000000000C9
S1131320000000000000000080910E3890910F38FA
S11313300E940C040E94ED000E9421018091133848
S11313408823F1F21092133880910E3890910F385F
S11313500E94180580910A3890910B380E942C063F
S113136080910838909109380E942C068091103899
S1131370882309F4C9CF1092103880910C389091C9
S11313800D380E94CE06C0CF809114389091153844
S113139001968D3023E09207D1F080931438909316
S11313A01538809111389091123801968D3023E0D0
S11313B0920729F08093113890931238089510926F
S11313C011381092123881E08093103808951092E9
S11313D014381092153881E080931338E2CF0F93BC
S11313E01F93CF93DF93869F8001879F100D969F55
S11313F0100D1124C8010E940B0AEC01009729F07A
S1131400A80160E070E00E94350BCE01DF91CF911E
S11314101F910F9108950F931F93CF93DF93823001
S1131420910510F482E090E0E0918138F0918238E7
S113143020E030E0A0E0B0E0309719F14081518124
S11314400281138148175907C8F08417950769F476
S1131450109731F012960C93129713961C9327C091
S1131460009381381093823822C02115310519F078
S11314704217530718F49A01BD01EF01DF01F80187
S1131480DBCF21153105F9F0281B390B2430310548
S113149080F48A819B816115710521F0FB018283AF
S11314A0938304C08093813890938238FE013296EE
S11314B044C0FE01E20FF31F81939193225031093E
S11314C0288339833AC020917F3830918038232B88
S11314D041F4209103383091043820937F383093BD
S11314E0803820910138309102382115310541F4BA
S11314F02DB73EB74091053850910638241B350B63
S1131500E0917F38F0918038E217F307A0F42E1BA6
S11315103F0B2817390778F0AC014E5F5F4F241753
S1131520350748F04E0F5F1F40937F385093803843
S11315308193919302C0E0E0F0E0CF01DF91CF917D
S11315401F910F910895CF93DF93009709F481C001
S1131550FC01329712821382A0918138B0918238B3
S1131560109781F420813181820F931F20917F385D
S1131570309180382817390751F5E0937F38F0937C
S1131580803867C0ED0120E030E0CE17DF0740F47B
S11315904A815B819E0141155105F1F0EA01F5CFC5
S11315A0C283D38340815181840F951FC817D90703
S11315B059F488819981840F951F029680839183C1
S11315C08A819B81828393832115310529F4E093D9
S11315D08138F09382383DC0E901EA83FB83499165
S11315E05991C40FD51FEC17FD0761F480819181D7
S11315F0840F951F0296E9018883998382819381E0
S11316008A839B83E0E0F0E012968D919C9113977E
S1131610009719F0FD01DC01F7CF8D919C91119792
S11316209D012E5F3F4F820F931F20917F38309191
S113163080382817390769F4309729F410928138D3
S11316401092823802C012821382A0937F38B09322
S11316508038DF91CF910895FB01DC0102C0019035
S11316600D9241505040D8F70895DC0101C06D93AC
S113167041505040E0F7089560507C4E0C942C0B80
S113168003D0808199270895FC01E050FC4E089511
S1071690F894FFCFF8
S11316943080310100308033010030803403003065
S11316A48041010030804301003080440300000085
S11316B4000000B1010000E8033080110100308013
S11316C41301003080140300308021010030802392
S11316D4010030802403000000000000B001020077
S11316E4E8033080010300000000000070010101E0
S10B16F404000B0C00050700C3
S10B16FCFF0000833820000008
S9030000FC
