:1000000014C02EC02DC02CC02BC02AC09BC228C03B
:1000100027C026C025C072C223C022C021C020C074
:100020001FC01EC01DC01CC01BC011241FBECFE5B9
:10003000D1E0DEBFCDBF10E0A0E6B0E0E2E5F9E040
:1000400002C005900D92A039B107D9F720E0A0E9D0
:10005000B0E001C01D92AA3FB207E1F70DD277C40C
:10006000CFCF9093A3008093A200FFCF813009F1FE
:10007000B8F0823019F0833051F0089588B36111DF
:1000800034C0846088BB8FB58F7C8FBD08956111AB
:1000900025C088B3806282BB80B78F7C80BF089503
:1000A00088B3611115C0806188BB80B78F7380BF32
:1000B000089588B3611106C0886088BB8FB58F73BF
:1000C0008FBD0895877F88BB8FB58F738FBD0895CF
:1000D0008F7E88BB80B78F7380BF089582B38F7D7A
:1000E00082BB80B78F7C80BF08958B7F88BB8FB524
:1000F0008F7C8FBD0895813069F130F1823019F025
:10010000833091F008958FB580628FBDE8E4F0E010
:100110002081862F90E0821B910997FD11C00397E3
:1001200014F060830895089580B7806280BFECE585
:10013000F0E02081862F90E0821B910997FFEFCF9E
:10014000919581959109EBCF80B7806880BFE6E5F6
:10015000F0E0DECF8FB580688FBDEAE4F0E0D8CF65
:10016000CF93DF93C82FD62F633180F061E08C2FBF
:100170007DDFD2E1EC2FF0E0EC0FF11DEC0FF11D73
:10018000EB56FF4FD083DF91CF910895662349F05E
:10019000623161F3E62FF0E0E458FF4F6081ABDF9E
:1001A000E9CF60E063DFE6CFE091A500F0E0EF5932
:1001B000FF4F50816091A40080E090E021E041E099
:1001C000322F3523A9F030E0FC01EB56FF4F31838D
:1001D0004283220F03968C30910591F78091900015
:1001E0009091910022E0FC01228F43E06FEF5FC20B
:1001F000362FEACF1092960081E0809397001092FC
:10020000990080939A0010929C0080939D00109218
:100210009F008093A000809190009091910023E036
:10022000FC01228F43E06FEF42C28091A400811154
:1002300004C08AE08093A400089581508093A400B4
:10024000E0919000F0919100848FAECF8091A50055
:100250008F5F803148F01092A50080E0E09190001F
:10026000F0919100838FA0CF8093A500E091900042
:10027000F0919100838F98CFCF93DF931F92CDB7EA
:10028000DEB7662389F02091A80030E0082E02C076
:10029000359527950A94E2F720FF06C09091A600B5
:1002A0009330B1F0923021F00F90DF91CF9108950B
:1002B0006230B1F16330D1F0643009F43FC0613095
:1002C00099F798DF85E08093A6001092A800ECCF04
:1002D0006230D9F06330E1F1643051F1613021F7DF
:1002E00084E08093A6001092A800DECF80E090E02A
:1002F0009CDF81E090E099DF82E090E096DF83E090
:1003000090E00F90DF91CF9190CF89834DDF91E006
:10031000898101C0990F8A95EAF79093A800C4CF0C
:1003200091E001C0990F8A95EAF79093A800BCCF9D
:100330008091A10081608093A100D2CF8091A10023
:1003400082608093A1006093A6001092A800ACCFB9
:100350000F90DF91CF917ACF0F931F93CF93DF93BD
:10036000EB010C818B81803329F0DF91CF911F91BC
:100370000F9108958FEF800F8330B8F7259610E026
:100380008991682F6F7082958F7076DF1F5F1013D1
:10039000F7CFDF91CF911F910F9108954CEA51E073
:1003A00060E280E735D1FC0190939100809390004A
:1003B0001092A80085E08093A6001092A7001092EA
:1003C000A50082E18093A40090E2908F93E0918F4A
:1003D000138E848F0FCF0F931F93CF93DF9381E002
:1003E0008093A700C7E9D0E010E001E0FE0131975B
:1003F000908131976081961769F01092A7008881EB
:1004000081508883811106C0691798F46F5F088353
:10041000812FA6DE1F5F2396143041F78091A6003E
:100420008430D9F0853051F0DF91CF911F910F9139
:100430000895961768F761500883EACF8091A70066
:10044000882391F38FEF8093A80083E08093A60028
:10045000DF91CF911F910F9108958091A70088237C
:1004600019F38FEF8093A80082E08093A600DF91BC
:10047000CF911F910F9108958FEF000000000000B1
:10048000000000000000000000000000000000006C
:1004900000000000000000000000815071F717BA52
:1004A00087B38C6187BB88B3837E88BB8D9A959810
:1004B00083E080BF81E083BF8FBD89E08EBD82E095
:1004C00089BF95D06BDF7894000000000000000029
:1004D000000000000000000000000000000000001C
:1004E0000000000000000000F3D028D180919200AD
:1004F000882351F3109292006EDFE6CF1F920F9285
:100500000FB60F9211242F933F934F935F936F93E6
:100510007F938F939F93AF93BF93EF93FF93B09B82
:10052000F7D1FF91EF91BF91AF919F918F917F9103
:100530006F915F914F913F912F910F900FBE0F9050
:100540001F9018951F920F920FB60F9211242F93A0
:100550003F934F935F936F937F938F939F93AF934B
:10056000BF93EF93FF938091600087FD05C08F5F7D
:1005700080936000843131F18091930090919400D8
:1005800001968D3023E09207A9F090939400809318
:100590009300FF91EF91BF91AF919F918F917F91C8
:1005A0006F915F914F913F912F910F900FBE0F90E0
:1005B0001F901895109294001092930081E0809300
:1005C0009200E7CF10926000E2D0D6CFC19810928F
:1005D000D00080E48093F8001092F5008AB7806222
:1005E0008ABF8BB780628BBF10926000089581E54F
:1005F000E9EAF0E0DF011D928A95E9F7C09AB89820
:10060000C198B99A80B5816080BD889A9098DECFF4
:100610009091AB00992319F080E090E008958093C9
:10062000AB006093AC005093BE004093BD008AEADB
:1006300090E00895CF93DC0111962C9111978C9145
:100640009091AB00992351F0891741F0291751F08F
:100650003091AC00303431F02F3F21F0C0E08C2FCE
:10066000CF910895C1E02913C0E012962C91129702
:10067000213059F0E091BD00F091BE00BD018091A4
:10068000AA0009958C2FCF9108959093BF00809375
:10069000C00082E08093C1008FEB90E0CBDF91E05F
:1006A000811190E09093CF008C2FCF910895CF933C
:1006B000DF93EC0189818D8B6E8B4F8BCE0145963C
:1006C000B9DF91E0811190E09DA3DF91CF91089572
:1006D000CF93DF93CDB7DEB760970FB6F894DEBF48
:1006E0000FBECDBF8091D000813049F060960FB62B
:1006F000F894DEBF0FBECDBFDF91CF91089520915A
:10070000F900222399F34091F500453078F350E049
:100710008091E90090E005964817590721F02031B3
:1007200029F754DFE3CF65EE70E0CE01019606D1E4
:100730001092F500CE0101967DDFD8CFCF93809146
:10074000D000813011F0CF9108958091F90080316F
:10075000D1F78091E300811117C08091CF008823E9
:1007600091F31092CF00C091C300CB5F4C2F50E0AB
:100770006FEB70E082ED90E0E1D0F894C093E3007D
:100780001092E2007894DFCF1092E200DCCF8091EB
:10079000D100811124C090989091E3009923C9F071
:1007A0002091D000213009F455C098F0223009F092
:1007B00064C09091F700992309F489C0993009F435
:1007C00076C09091E40090FD74C0C19A9695909384
:1007D000E40091E0811190E09093D1000895909A07
:1007E0009091D000913071F190F0923029F596B34C
:1007F00091702091F70031E0320F3093F700211112
:1008000046C0992331F3E2DE8091D100E2CFB09B64
:100810003AC09091F80091509093F8009111D9CF7F
:1008200091E09093D0001092F9009AB790629ABF2D
:100830009BB790629BBFCDCF8AE591E012DC80919F
:10084000D100C7CF9091F900903168F59F5F9093E8
:10085000F900BFCFE091E200E91768F19E13B9CF2C
:100860002091E5009091D200291709F446C09FEF2E
:100870009093E2001092F500ACCF82E491E0F1DBBE
:100880008091D100A6CF9FE39093F800A2CF2930AA
:1008900009F19795992797952091F6002695922B27
:1008A0009093F60096CF9FEF9093600092CF909137
:1008B000E400C1988BCF91E09E0F9093E200F0E0AE
:1008C000E755FF4F91A59093E400C19A82CF909194
:1008D000E4007CCF992309F496CFE091F500E03154
:1008E00009F491CF91E09E0F9093F500F0E0E75569
:1008F000FF4F9091F60094AF93CF2091E600909136
:10090000D3002913B4CF1092E2001092E300B2CFCB
:100910008091D000882371F08BB78F7D8BBF81E0F1
:100920008093D1001092F70082E08093D000109263
:100930006000089580E48093F8000895FB01DC01D5
:1009400002C001900D9241505040D8F70895F8949C
:02095000FFCFD7
:10095200FF000102040803060C090A050D0B070E2D
:100962000F01060B0F12000000000000FF060E1818
:10097200222D394653606F7F8EA0B2BFD8EDFF00A3
:00000001FF
