S00F000068612D6365696C2E7372656382
S113000019C033C032C031C030C049C72EC02DC062
S11300102CC02BC02AC029C028C068C726C025C050
S113002024C023C022C021C020C01FC01EC01DC0C8
S11300301CC01BC011241FBECFEFCDBFDFE3DEBF4A
S11300401EE3A0E0BEE3E1E3F4E102C005900D92FB
S1130050A830B107D9F72EE3A8E0BEE301C01D9292
S1130060AB3AB207E1F77FD790C9CACF8093183E65
S11300709093193EFFCF81E8E6E2FEE3DF011D9293
S11300808A95E9F715D64C981092853E80E48093C2
S1130090A53E1092A23E8BE08093550480E28BB97A
S11300A01092003E0895A6E2BEE3E0E0F0E09C91E9
S11300B0992341F031965396E530F105C1F780E07C
S11300C090E0089593E19E9FD0019F9FB00D11246D
S11300D0FD01EA5DF14C8083618342835383248371
S11300E03583CF010895CF92DF92EF92FF920F9361
S11300F01F93CF93DF937C01FC0111810081C6E241
S1130100DEE3D12C82E0C82E8881882371F00817A1
S113011039F01817A1F09981903489F01F3F79F0D4
S11301206396FEE3C538DF0779F78D2DDF91CF9114
S11301301F910F91FF90EF90DF90CF90089591E081
S1130140181390E0D92AF7019281913029F48E8313
S11301500F83C8869A8BE4CFEA81FB81B7018C8137
S11301609D810995DDCFFC0180818683678340876B
S113017081E0828B08958091853E813009F0089555
S11301808091A63E8823D9F34091A23E4530B8F32E
S113019050E020919A3E30E02B5F3F4F42175307C7
S11301A091F08A3061F74C981092853E80E48093F8
S11301B0A53E1092A23E8BE08093550480E28BB959
S11301C01092003E089566E97EE38AE19EE3C5D875
S11301D01092A23E8AE19EE386CFEF92FF920F93A4
S11301E01F93CF93DF938091853E813039F0DF9167
S11301F0CF911F910F91FF90EF9008959091A63E9B
S11302009A30A9F79091943E911132C0CCE2DEE38A
S1130210EE24E3948BE0F82E00E28C85811108C073
S113022063968EE3CB38D80711F38C858823C1F30A
S11302301C861C811B5F412F50E0BE0187E89EE3B2
S11302408CD8112369F387E89EE34DDF8111CFCF6A
S1130250F8941093943E1092933EE092853E10924F
S1130260A63EF09255040BB91092003E7894D8CF74
S1130270F8941092933E8093853E1092A63E8BE0B4
S11302808093550480E28BB91092003E7894AFCFEE
S11302908091863E811124C04B989091943E99237D
S11302A0C9F02091853E213009F46EC098F02230C7
S11302B009F064C09091A43E992309F49BC099303D
S11302C009F494C09091953E90FD92C04C9A9695F5
S11302D09093953E91E0811190E09093863E08952D
S11302E04B9A9091853E913009F440C018F19230B8
S11302F0B9F59AB190722091A43E31E0320F309357
S1130300A43E222309F456C0293009F476C0209172
S1130310A33E422F469521E030E0911102C020E037
S113032030E03695322F222737952795242B2093BA
S1130330A33ED0CF559B3AC09091A53E9150909347
S1130340A53E9111C7CF91E09093853E1092A63EB1
S11303509BE09093550490E29BB91092003EBACF73
S113036089E591E083DE8091863EB4CF9091A63EEC
S11303709A3060F59F5F9093A63EACCF81E491E004
S113038075DE8091863EA6CFE091933EE91710F189
S11303909E13A0CF2091963E9091873E2917F1F1AC
S11303A09FEF9093933E1092A23E94CF9FE390933D
S11303B0A53E90CF992309F48DCF4C981092853E99
S11303C090E49093A53E1092A23EC2CF9FEF9093EB
S11303D0003E80CF91E09E0F9093933EF0E0E9576A
S11303E0F14C90819093953E4C9A74CF9091953EA8
S11303F04C986DCF9091953E6ACF9923F1F2E0919C
S1130400A23EEC30D1F291E09E0F9093A23EF0E038
S1130410EA56F14C9091A33E908395CF2091973E5C
S11304209091883E2913BCCF1092933E1092943E33
S1130430BACF8091853E882379F01092550480E2EA
S11304408BB981E08093863E1092A43E82E0809333
S1130450853E1092003E089580E48093A53E089561
S1130460CF93DF93DC011496CD91DC91159712960E
S1130470ED91FC911397818119969C911997992379
S113048011F190E041E00AC0232F218384839F5F10
S1130490440F19962C9119979217A8F41A96ED9176
S11304A0FC911B9726E0929FE00DF11D112463310E
S11304B041F0362F17962C911797242329F320E027
S11304C0E4CF3281F7CF82E08B8743E06FEFCE0138
S11304D0DF91CF9148CECF93DF93DC011496CD9179
S11304E0DC9115971296ED91FC9113973281199630
S11304F08C911997882391F090E01A96ED91FC91D4
S11305001B9786E0989FE00DF11D1124118234831E
S11305109F5F19962C911997921778F383E08B8734
S113052043E06FEFCE01DF91CF911DCEEF92FF92AA
S11305300F931F93CF93DF93AC01EB018B81803238
S1130540C9F1803339F0DF91CF911F910F91FF9062
S1130550EF9008958C818823B1F32881EA01088102
S11305601981DB011596815090E00696680F791F7A
S11305703D91F8018381811105C012C035969381A4
S1130580992371F090819033C9F79181291711F063
S11305909F3FA1F792813913F1CFEA01EC87FD87E0
S11305A0A617B70729F7DF91CF911F910F91FF90FD
S11305B0EF900895FA01E480F5809981E70188813C
S11305C09813C1CFFB018581EA01888786818F83D7
S11305D099859923C1F0EB012796A0E0B0E020E0D3
S11305E030E08991FA0102851385F801EA0FFB1FB7
S11305F082832F5F3F4FFA0191851696E92FF0E031
S11306002E173F0774F38A019E5F492F50E06B5FFA
S11306107F4FC7010B96A1D6E8018885823059F037
S1130620833009F090CFC801DF91CF911F910F91D2
S1130630FF90EF9050CF63E1C801DF91CF911F91FC
S11306400F91FF90EF900CCF9F92AF92BF92CF92F9
S1130650DF92EF92FF920F931F93CF93DF93EC01FE
S1130660CC80DD80EA81FB81B680A28089858823E5
S1130670F1F1E62EF12C912C12C0E3829E2DEA8139
S1130680FB8127813085A901490F511DCA0175D607
S1130690F8018283A482F3949985F91698F40A8563
S11306A01B8546E0F49E000D111D1124F801BE10B7
S11306B0E4CF9381911102C09394E1CF9150F8015A
S11306C09383DDCF9916F9F0992389F080E0EA85C8
S11306D0FB8556E0859FE00DF11D11249281F60102
S11306E0E80FF11D95878F5F9985891780F3DF9156
S11306F0CF911F910F91FF90EF90DF90CF90BF901B
S1130700AF909F900895BA94EA81FB818781908588
S11307108B0D911D32D6992051F320E0EA85FB859B
S113072046E0249FE00DF11D1124B38282832F5FE4
S11307309985291798F3C8CF0F931F93CF93DF930D
S1130740FC01A281B3811A968D919C911B97892BF0
S1130750D9F019968C9119978823B1F004811581E9
S113076086818F5F868319969C911997891789F0E2
S113077090E0EF011A962D913C911B97820F931FE5
S1130780FCD58F83F8018487DF91CF911F910F915E
S11307900895168280E090E0ECCFCF93DF93DC01E4
S11307A01C96ED91FC911D97309799F023816481FB
S11307B01C961D921C921D972330F9F068F0EC01F1
S11307C0253091F0263029F48885823051F1833028
S11307D001F1DF91CF9108952130D9F724E0FC0194
S11307E02087DF91CF913CCE84E08887CD012CDF38
S11307F063E1CE01DF91CF9133CEFC01208522301D
S113080059F0233031F724E0208763E1DF91CF9161
S113081027CECD0191DFECCF25E02087DF91CF916A
S11308205ACE60E0CD0110DFE3CF7F928F929F928A
S1130830AF92BF92CF92DF92EF92FF920F931F93EA
S1130840CF93DF936C017B01DC011396BC9066E0CF
S113085070E08B2D90E046D4EC016EE070E081E016
S113086090E040D48C01F701838181110DC014C044
S1130870853031F49481D60116968C91891748F00D
S113088035968381882341F0813091F784818431C6
S1130890B8F380E090E071C0F801E082F182C28296
S11308A0D382C287D387B186980146E952E060E2D9
S11308B0D6018C91F8DB5C01E8018C839D8385E093
S11308C088871E82F6018285938557D58F83D6014A
S11308D016968C91169790E0019717962D913C915E
S11308E01897820F931F49D5782E8985882301F1A3
S11308F0812C912CE12CF12CD8011A96CD91DC910C
S11309001B97C80DD91D7A82F601848195818E0DBD
S11309109F1D33D58D83FFEFEF1AFF0A86E0880E03
S1130920911CD80119968C9190E0E816F90624F3ED
S113093080E2E5018987F80181858E5F8A87878156
S11309408C8781858823B1F0D5011D9640E050E065
S113095020E030E0E801EA85FB85E40FF51F8281A1
S11309608D932F5F3F4F4A5F5F4F898590E0281733
S1130970390784F3C801AFDDC801DF91CF911F911E
S11309800F91FF90EF90DF90CF90BF90AF909F902A
S11309908F907F9008950F931F93CF93DF930097C9
S11309A0C1F18C01DC0119969C91992309F450C082
S11309B0C0E021E0D2E00DC0681780F56F5FD483FA
S11309C060838581C7D220E0F8019185CF5FC91784
S11309D0D0F4D8011A96ED91FC911B97B6E0CB9F09
S11309E0E00DF11D112481816081861779F39481D2
S11309F091509483992301F320E0D80119969C9196
S1130A00CF5FC91730F3F80180858430B1F08530A9
S1130A1051F0DF91CF911F910F910895861780F6C1
S1130A206150D483CDCF2223A1F383E0F8018087E2
S1130A30DF91CF911F910F910895222351F382E00A
S1130A40D80118968C93DF91CF911F910F9108953F
S1130A50D80118968C91843091F38530D1F6E5CF86
S1130A600895CF92DF92EF92FF920F931F93CF934B
S1130A70DF937C0182D4C82EC70101967ED4C82F8F
S1130A8067E070E090E02ED3D82ED92F67E070E0B5
S1130A9081E090E027D38C0120E030E040E355E092
S1130AA060E38C2D00DBDC01F801E082F182C48379
S1130AB0D582D68382839383CC23C1F0ED2DFD2F81
S1130AC020E030E091E061E052E091839283138270
S1130AD01482462F022E01C0440F0A94EAF745837C
S1130AE056832F5F3F4F37962C1778F31A961C9234
S1130AF01A9780E319968C93C801DF91CF911F91C7
S1130B000F91FF90EF90DF90CF9008950F931F9374
S1130B10CF93DF93EC011DD29C81992309F457C034
S1130B2020E064E073E0A4E652E0ED81FE8197E00A
S1130B30299FE00DF11D112442813581382391E074
S1130B4009F490E03181931709F455C034813F5F73
S1130B503483353009F452C0942F108291113CC073
S1130B60413009F44EC041110BC03381363940F491
S1130B703F5F3383343609F468C0363909F452C010
S1130B8092832F5F3C81231780F20A811B813323D8
S1130B90F1F060E090E0ED81FE8187E0989FE00D48
S1130BA0F11D11242081222369F0D801A60FB11D63
S1130BB080E1989FA0011124242B1B962C93108272
S1130BC06F5F3C819F5F931730F3611134C0DF91F5
S1130BD0CF911F910F910895913091F64111D0CF8B
S1130BE033813436B8F4908392832F5F3C8123178A
S1130BF008F49BCFCACF1482942FAFCF9183148271
S1130C00ACCF1382508392832F5F3C81231708F467
S1130C108CCFBBCF608392832F5F3C81231708F472
S1130C2084CFB3CF7083A38392832F5F3C81231738
S1130C3008F47BCFAACFF801628743E06FEFC801C5
S1130C40DF91CF911F910F918ECA708392832F5F92
S1130C503C81231708F469CF98CF82B186FB88279B
S1130C6080F917990BC03599846034998860339959
S1130C708061509980625299806408958260F3CFB4
S1130C80E0E0FAE080818E7F80838CE0858387E7D3
S1130C90818381E083838FEF86A387A38081816032
S1130CA0808310A612A614A611A613A615A608954D
S1130CB04D9A4598E0E4F4E08BE0858B4C98449A97
S1130CC084E0848B89B1837F89B988B18C6088B9C9
S1130CD00895CF93DF9388ED84BF10926100E0E420
S1130CE0FAE080E890E08487958791E09683958385
S1130CF087E0818383E0808388E080931604809377
S1130D0017048093350480933404809333048093D0
S1130D10500480935204A0E0B4E020E412962C9393
S1130D20129720E812962C931297E0E2F4E050E236
S1130D30528340E142838283C0E4D4E09A8334E066
S1130D403A8316965C93169716964C9316971696B6
S1130D508C931697368322E0268396832E831196EE
S1130D605C93119711964C93119711968C93318340
S1130D70218391832983DF91CF9182CF843071F1D4
S1130D8038F08031A1F08032E9F18830D9F008954B
S1130D90813079F1823009F58091010A8F7D809349
S1130DA0010A80E1662311F180930504089580917E
S1130DB0010A8D7F8093010A82E0662359F08093B3
S1130DC0250408958091010A8B7F8093010A84E0B1
S1130DD06111F5CF80932604089508958091010A46
S1130DE08F7E8093010A88E06111DECF8093060430
S1130DF008958091010A8F7B8093010A80E2662323
S1130E00A9F3D2CF8091010A8E7F8093010A81E0F9
S1130E10662301F3D4CFE62FF0E0EA5FFF4F908121
S1130E20843029F138F0803189F0803281F18830C2
S1130E30A9F00895813019F18230C1F490932B0AFE
S1130E408091010A80628093010A089590932A0A8E
S1130E508091010A82608093010A089590932C0A7C
S1130E608091010A84608093010A08950895909303
S1130E70290A8091010A80618093010A0895909360
S1130E802D0A8091010A80648093010A0895909349
S1130E90280A8091010A81608093010A08951F92B3
S1130EA00F920FB60F9211242F933F934F935F939A
S1130EB06F937F938F939F93AF93BF93EF93FF931E
S1130EC05D9B03C080E28BB9B4DAFF91EF91BF91CF
S1130ED0AF919F918F917F916F915F914F913F91CE
S1130EE02F910F900FBE0F901F9018951F920F9285
S1130EF00FB60F9211242F933F934F935F936F93E9
S1130F007F938F939F93AF93BF93EF93FF9381E06E
S1130F108093460A8091003E87FD05C08F5F84312F
S1130F20A1F08093003EB3D0FF91EF91BF91AF91B8
S1130F309F918F917F916F915F914F913F912F91ED
S1130F400F900FBE0F901F9018951092003EA0D9DD
S1130F50EACF83CE633110F061E010CF6623E9F36A
S1130F606231D1F358CF8FEF000000000000000081
S1130F70000000000000000000000000000000006D
S1130F800000000000000000815071F7A2DE73D859
S1130F9063EE73E985E294E948DC80930E3E909316
S1130FA00F3E65EC73E989E194E93FDC8093103EE0
S1130FB09093113E67EA73E98DE094E936DC8093FF
S1130FC00C3E90930D3E6EE873E981E094E92DDCCC
S1130FD080930A3E90930B3E84E090E042DD809340
S1130FE0083E9093093E789404C08091123E81118A
S1130FF046C00000000000000000000000000000E7
S113100000000000000000000000000000000000DC
S113101000008091103E9091113EBFDB80910E3E06
S113102090910F3EBADB80910C3E90910D3EB5DB62
S113103080910A3E90910B3EB0DB9DD8CED8809132
S1131040153E882309F4D1CF1092153E8091103EAD
S11310509091113EA0DC80910E3E90910F3E9BDC5E
S113106080910C3E90910D3E96DC80910A3E9091C9
S11310700B3E91DC8091123E882309F4BACF109282
S1131080123E8091083E9091093E40DDB2CF80919E
S1131090163E9091173E01968D3023E09207D1F0D1
S11310A08093163E9093173E8091133E9091143E88
S11310B001968D3023E0920729F08093133E90939C
S11310C0143E08951092133E1092143E81E08093D2
S11310D0123E08951092163E1092173E81E08093BE
S11310E0153EE2CF0F931F93CF93DF93869F80012A
S11310F0879F100D969F100D1124C8010DD0EC018F
S1131100009721F0A80160E070E030D1CE01DF91BA
S1131110CF911F910F9108950F931F93CF93DF9356
S11311208230910510F482E090E0E091A93EF091C4
S1131130AA3E20E030E0A0E0B0E0309719F1408111
S113114051810281138148175907C8F08417950704
S113115069F4109731F012960C93129713961C931E
S113116027C00093A93E1093AA3E22C02115310541
S113117019F04217530718F49A01BD01EF01DF017A
S1131180F801DBCF21153105F9F0281B390B243088
S1131190310580F48A819B816115710521F0FB0181
S11311A08283938304C08093A93E9093AA3EFE0158
S11311B0329644C0FE01E20FF31F819391932250B3
S11311C03109288339833AC02091A73E3091A83E43
S11311D0232B41F42091033E3091043E2093A73EFB
S11311E03093A83E2091013E3091023E21153105F5
S11311F041F42DB73EB74091053E5091063E241B65
S1131200350BE091A73EF091A83EE217F307A0F456
S11312102E1B3F0B2817390778F0AC014E5F5F4F48
S11312202417350748F04E0F5F1F4093A73E509395
S1131230A83E8193919302C0E0E0F0E0CF01DF91FA
S1131240CF911F910F910895CF93DF93009709F4E5
S113125081C0FC01329712821382A091A93EB09101
S1131260AA3E109781F420813181820F931F20912F
S1131270A73E3091A83E2817390751F5E093A73EC1
S1131280F093A83E67C0ED0120E030E0CE17DF0701
S113129040F44A815B819E0141155105F1F0EA0158
S11312A0F5CFC283D38340815181840F951FC81722
S11312B0D90759F488819981840F951F02968083F8
S11312C091838A819B81828393832115310529F43B
S11312D0E093A93EF093AA3E3DC0E901EA83FB8373
S11312E049915991C40FD51FEC17FD0761F4808112
S11312F09181840F951F0296E901888399838281E5
S113130093818A839B83E0E0F0E012968D919C9117
S11313101397009719F0FD01DC01F7CF8D919C9193
S113132011979D012E5F3F4F820F931F2091A73E7F
S11313303091A83E2817390769F4309729F41092A0
S1131340A93E1092AA3E02C012821382A093A73E25
S1131350B093A83EDF91CF910895FB01DC0102C058
S113136001900D9241505040D8F70895DC0101C01E
S11313706D9341505040E0F7089503D08081992740
S11113800895FC01E050FC4E0895F894FFCF50
S113138E308031030030803302003080230200307D
S113139E8043020000000000003080010300308012
S11313AE0306003080230200308043020030803375
S11313BE020000000000003080110300308013068C
S11313CE003080230200308043020030803302005C
S11313DE0000000000308021030030804103003003
S11313EE802302003080430200308033020000006C
S11313FE0000007301010100000B1E0005190072AC
S113140E01010101000B1E00051900710101010209
S113141E000B1E000519007001010103000B1E00D4
S106142E05190099
S10B1431FF0000AB3E200000A7
S9030000FC
