:1000000019C033C032C031C030C08FC72EC02DC020
:100010002CC02BC02AC029C028C0AEC726C025C00E
:1000200024C023C022C021C020C01FC01EC01DC0CC
:100030001CC01BC011241FBECFEFCDBFDFE3DEBF4E
:100040001EE3A0E0BEE3EDE9F4E102C005900D92ED
:10005000A830B107D9F72EE3A8E0BEE301C01D9296
:10006000A93FB207E1F7C5D7B9C9CACF8093183EF7
:100070009093193EFFCFEAE1FEE38BEDDF011D9285
:100080008A95E9F781E085A782E08093733E83E05B
:1000900080939F3E53D64C981092CB3E80E4809341
:1000A000F33E1092F03E8BE08093550480E28BB9D2
:1000B0001092003E0895EF92FF920F931F93AAE1D2
:1000C000BEE3E0E0F0E012969C911297992361F074
:1000D00031969C96E430F105B1F780E090E01F91F5
:1000E0000F91FF90EF9008959CE29E9FD0019F9FFB
:1000F000B00D1124FD01E65EF14C82836383448BD5
:10010000558B268B378B008F118FE28EF38ECD01AE
:10011000855E914C1F910F91FF90EF900895CF92C3
:10012000DF92EF92FF920F931F93CF93DF937C01A7
:10013000FC0111810081CAE1DEE3D12C82E0C82EEE
:100140008A81882371F0081739F01817A1F09B8174
:10015000903489F01F3F79F0AC96FEE3CA3CDF078C
:1001600079F78D2DDF91CF911F910F91FF90EF9037
:10017000DF90CF90089591E0181390E0D92AF7010D
:100180009281913029F48C8F0D8FCE8E9CA7E4CF75
:10019000EC89FD89B7018E899F890995DDCFFC0126
:1001A0008181838F648F458F81E083A70895CF93EA
:1001B000DF93CDB7DEB76097CDBFDEBF8091CB3E7A
:1001C000813031F06096CDBFDEBFDF91CF910895D1
:1001D0008091F43E8823B1F34091F03E453090F396
:1001E00050E02091E43E30E02B5F3F4F4217530731
:1001F00091F08A3039F74C981092CB3E80E480938E
:10020000F33E1092F03E8BE08093550480E28BB970
:100210001092003ED7CF60EE7EE3CE010196CED89D
:100220001092F03ECE0101967ADFCCCFEF92FF9292
:100230000F931F93CF93DF938091CB3E813039F0A2
:10024000DF91CF911F910F91FF90EF9008959091C2
:10025000F43E9A30A9F79091DE3E91111CC0CAE19C
:10026000DEE3EE24E3948BE0F82E00E28CA58823F5
:1002700061F0E88DF98D309799F16DEC7EE38A8D10
:100280009B8D0995182F111116C0AC968EE3CA3CB0
:10029000D80761F7D5CFF8941092DD3E8093CB3E1E
:1002A0001092F43E8BE08093550480E28BB910925B
:1002B000003E7894C5CF8DEC9EE331DF8111C0CF35
:1002C000F8941093DE3E1092DD3EE092CB3E109209
:1002D000F43EF09255040BB91092003E7894D5CFBD
:1002E0001CA618A11B5F412F50E0BE01645E7F4F2A
:1002F0008DEC9EE363D8C7CF8091CC3E811124C0A2
:100300004B989091DE3E9923C9F02091CB3E21304D
:1003100009F46EC098F0223009F064C09091F23E6A
:10032000992309F49BC0993009F494C09091DF3E61
:1003300090FD92C04C9A96959093DF3E91E081118A
:1003400090E09093CC3E08954B9A9091CB3E9130A3
:1003500009F440C018F19230B9F59AB19072209129
:10036000F23E31E0320F3093F23E222309F456C0C0
:10037000293009F476C02091F13E422F469521E0C4
:1003800030E0911102C020E030E03695322F222774
:1003900037952795242B2093F13ED0CF559B3AC01B
:1003A0009091F33E91509093F33E9111C7CF91E01D
:1003B0009093CB3E1092F43E9BE09093550490E2D4
:1003C0009BB91092003EBACF8AE491E04FDE809153
:1003D000CC3EB4CF9091F43E9A3060F59F5F9093FD
:1003E000F43EACCF82E391E041DE8091CC3EA6CFDB
:1003F000E091DD3EE91710F19E13A0CF2091E03E81
:100400009091CD3E2917F1F19FEF9093DD3E109230
:10041000F03E94CF9FE39093F33E90CF992309F45D
:100420008DCF4C981092CB3E90E49093F33E109277
:10043000F03EC2CF9FEF9093003E80CF91E09E0FA1
:100440009093DD3EF0E0E353F14C90819093DF3EDA
:100450004C9A74CF9091DF3E4C986DCF9091DF3ED7
:100460006ACF9923F1F2E091F03EE031D1F291E0D0
:100470009E0F9093F03EF0E0E052F14C9091F13EEF
:10048000908395CF2091E13E9091CE3E2913BCCF31
:100490001092DD3E1092DE3EBACF8091CB3E882393
:1004A00079F01092550480E28BB981E08093CC3EC4
:1004B0001092F23E82E08093CB3E1092003E08956F
:1004C00080E48093F33E08950F931F93CF93DF93BF
:1004D000DC0116960D911C9117971B968C911B971A
:1004E000882339F190E041E00FC0232F2183129639
:1004F000CD91DC911397298124839F5F440F1B9634
:100500002C911B979217A8F41C96ED91FC911D97C6
:1005100086E0989FE00DF11D1124633141F0362FE4
:1005200019962C911997242301F320E0DFCF328113
:10053000F7CF82E0F80180A343E06FEFC801DF91BD
:10054000CF911F910F912BCE0F931F93CF93DF93DA
:10055000DC0116960D911C9117971B968C911B9799
:100560008823B9F090E01C96ED91FC911D9786E0F0
:10057000989FE00DF11D112411821296CD91DC910E
:1005800013972A8124839F5F1B962C911B979217A8
:1005900050F383E0F80180A343E06FEFC801DF91DF
:1005A000CF911F910F91FBCDCF93DF93FC0126815B
:1005B00037818385882309F44CC080E040E018C06F
:1005C00013966C931397C281D381962F0F80D88591
:1005D000C02DC90FD11D988112969C931297C2818C
:1005E000D3819A8114969C938F5F93858917D0F459
:1005F000A485B58596E0899FA00DB11D1124C28107
:10060000D3819E819613DCCF13969C911397911101
:1006100002C04F5FDBCF915013969C931397C2811A
:10062000D381D4CF4917D1F0992399F080E0A485E4
:10063000B58596E0899FA00DB11D112412969C915D
:10064000D901A80FB11D92969C938F5F938589174E
:1006500070F363E1CF01DF91CF9136CF4423C9F32B
:1006600040E0A485B58586E0489FA00DB11D11240A
:10067000C281D3818E81815013968C931397C2814E
:10068000D3810F80D885C02DC80FD11D88811296C7
:100690008C934F5F9385491720F3C6CFCF93DF9399
:1006A000DC011296CD91DC9113978A859B85892B6D
:1006B00011F189858823F9F016964D915C91179771
:1006C0001896EC911897EF5F1896EC931897898518
:1006D000E817A1F02E2F30E0EA85FB85E20FF31F2B
:1006E000808119968C931997FA0181A363E1CD015A
:1006F000DF91CF91E9CEDF91CF91089518961C92AA
:10070000189720E030E0E8CFCF92DF92EF92FF928F
:100710000F931F93CF93DF93FC01C081D1819B8105
:10072000992339F1042F162F7F0184E0D82E25E07C
:10073000C22E04C025969B819923D9F028812033AD
:10074000C9F72981211711F02F3FA1F78A81801362
:10075000F1CF9330F9F0B0F0953041F1963051F788
:10076000F7018285823061F1833021F7C70196DF7E
:10077000E1CFDF91CF911F910F91FF90EF90DF902C
:10078000CF9008959130B1F6F701D2866C81C70100
:100790009BDED0CFF7018285823071F0833051F635
:1007A000F701D28663E1C7018FDEC4CFF701D2869D
:1007B0006C81C701F9DEE8CFC286C701C5DEBACFBA
:1007C00060E0C701F1DEB6CFDF92EF92FF920F93A8
:1007D0001F93CF93DF938C01FB018381803241F122
:1007E000803341F0DF91CF911F910F91FF90EF90F7
:1007F000DF900895FB0184818823A1F3D080EB0171
:1008000025968150E82EF12CF6E0EF0EF11CE60E55
:10081000F71E49916D2DC80177DFCE15DF05C9F7A9
:10082000DF91CF911F910F91FF90EF90DF9008958E
:10083000F801E680F780FB019181F701818198132F
:10084000D1CFFB018581F8018287FB018681F80108
:10085000818743854423C1F0EB012796A0E0B0E0F7
:1008600020E030E04991F80184859585FC01EA0F8C
:10087000FB1F42832F5F3F4FF80143851696E42FFD
:10088000F0E02E173F0774F34E5F50E06B5F7F4F31
:10089000C701809693D5F8018285823061F083305C
:1008A00009F0A0CFC801DF91CF911F910F91FF9068
:1008B000EF90DF9049CE63E1C801DF91CF911F91A6
:1008C0000F91FF90EF90DF90FFCDBF92CF92DF921C
:1008D000EF92FF920F931F93CF93DF936C017B01F5
:1008E000DC011396BC9066E070E08B2D90E02BD479
:1008F0008C016EE070E081E090E025D4EC01F7011E
:10090000838181110DC014C0853031F49481D601EA
:1009100016968C91891748F035968381882341F08B
:10092000813091F784818431B8F380E090E06CC02D
:10093000E882F982CA82DB820C871D87BB86E12CA4
:10094000F12C00E010E09E0144EE53E060E2F6017D
:100950008081B1DB8E839F8325E02A871886D601AC
:100960001A96ED91FC911B97208129872B852223D4
:1009700041F160E070E020E030E0AC85BD85A60F7D
:10098000B71FEA81FB814681F60107811085F801D6
:10099000E40FF11D3197408112964C931297F601A6
:1009A00044815581FA01E20FF31F408115964C9363
:1009B0002F5F3F4F6A5F7F4F4B8550E0241735070D
:1009C000E4F220E2FC01268F2B852E5F278F2985FC
:1009D00021A32B852223A9F0DC01929660E070E030
:1009E00040E050E0EC85FD85E60FF71F82818D9396
:1009F0004F5F5F4F6A5F7F4F2B8530E04217530791
:100A00008CF3CE01A1DDCE01DF91CF911F910F912B
:100A1000FF90EF90DF90CF90BF9008950F931F93BA
:100A2000CF93DF930097C1F18C01DC011B969C9161
:100A3000992309F450C0C0E021E0D2E00DC068174E
:100A400080F56F5FD48360838581CAD220E0F8018E
:100A50009385CF5FC917D0F4D8011C96ED91FC9116
:100A60001D97B6E0CB9FE00DF11D112481816081BF
:100A7000861779F3948191509483992301F320E0B0
:100A8000D8011B969C91CF5FC91730F3F80182857E
:100A90008430B1F0853051F0DF91CF911F910F91EB
:100AA0000895861780F66150D483CDCF2223A1F319
:100AB00083E0F8018287DF91CF911F910F91089514
:100AC000222351F382E0D8011A968C93DF91CF91C3
:100AD0001F910F910895D8011A968C91843091F34B
:100AE0008530D1F6E5CF0895AF92BF92CF92DF92D5
:100AF000EF92FF920F931F93CF93DF936C01FC0152
:100B0000818167E070E090E01ED35C0167E070E0F7
:100B100081E090E018D3EC01E12CF12C00E010E032
:100B200020E030E043E755E060E380E8C4DADC0130
:100B3000C882D982F60151815C83AD82BE828A83EC
:100B40009B835523B9F0F50120E030E091E071E09E
:100B500062E09183928313821482472F022E01C098
:100B6000440F0A94EAF7458366832F5F3F4F379619
:100B7000251778F35F961C925F9780E35E968C93BF
:100B8000CE01DF91CF911F910F91FF90EF90DF90F9
:100B9000CF90BF90AF9008950F931F93CF93DF93A3
:100BA000EC011DD29C81992309F457C020E064E038
:100BB00073E0A4E652E0ED81FE8197E0299FE00D0D
:100BC000F11D112442813581382391E009F490E030
:100BD0003181931709F455C034813F5F3483353038
:100BE00009F452C0942F108291113CC0413009F495
:100BF0004EC041110BC03381363940F43F5F33831F
:100C0000343609F468C0363909F452C092832F5F34
:100C10003C81231780F20A811B813323F1F060E0CD
:100C200090E0ED81FE8187E0989FE00DF11D112499
:100C30002081222369F0D801A60FB11D80E1989F81
:100C4000A0011124242B90962C9310826F5F3C817D
:100C50009F5F931730F3611134C0DF91CF911F91E3
:100C60000F910895913091F64111D0CF33813436F0
:100C7000B8F4908392832F5F3C81231708F49BCFB5
:100C8000CACF1482942FAFCF91831482ACCF13823A
:100C9000508392832F5F3C81231708F48CCFBBCF06
:100CA000608392832F5F3C81231708F484CFB3CFF6
:100CB0007083A38392832F5F3C81231708F47BCF3B
:100CC000AACFF801678F43E06FEFC801DF91CF91A2
:100CD0001F910F9164CA708392832F5F3C81231709
:100CE00008F469CF98CF82B186FB882780F91799DD
:100CF0000BC035998460349988603399806150992C
:100D000080625299806408958260F3CFE0E0FAE057
:100D100080818E7F80838CE0858387E7818381E07B
:100D200083838FEF86A387A380818160808310A651
:100D300012A614A611A613A615A608954D9A4598B5
:100D4000E0E4F4E08BE0858B4C98449A84E0848B5B
:100D500089B1837F89B988B18C6088B90895CF93B0
:100D6000DF9388ED84BF10926100E0E4FAE080E850
:100D700090E08487958791E09683958387E08183CF
:100D800083E0808388E08093160480931704809327
:100D9000350480933404809333048093500480930B
:100DA0005204A0E0B4E020E412962C93129720E8BD
:100DB00012962C931297E0E2F4E050E2528340E165
:100DC00042838283C0E4D4E09A8334E03A83169667
:100DD0005C93169716964C93169716968C931697C7
:100DE000368322E0268396832E8311965C93119797
:100DF00011964C93119711968C9331832183918393
:100E00002983DF91CF9182CF843071F138F0803126
:100E1000A1F08032E9F18830D9F00895813079F17C
:100E2000823009F58091010A8F7D8093010A80E16B
:100E3000662311F18093050408958091010A8D7F46
:100E40008093010A82E0662359F080932504089577
:100E50008091010A8B7F8093010A84E06111F5CFB4
:100E600080932604089508958091010A8F7E8093CF
:100E7000010A88E06111DECF809306040895809115
:100E8000010A8F7B8093010A80E26623A9F3D2CF07
:100E90008091010A8E7F8093010A81E0662301F32D
:100EA000D4CFE62FF0E0E658FB469081843029F15C
:100EB00038F0803189F0803281F18830A9F00895CE
:100EC000813019F18230C1F490932B0A8091010A8C
:100ED00080628093010A089590932A0A8091010A02
:100EE00082608093010A089590932C0A8091010AF0
:100EF00084608093010A089508959093290A80914F
:100F0000010A80618093010A089590932D0A8091CF
:100F1000010A80648093010A08959093280A8091C1
:100F2000010A81608093010A08951F920F920FB603
:100F30000F9211242F933F934F935F936F937F935F
:100F40008F939F93AF93BF93EF93FF935D9B03C0EA
:100F500080E28BB9A2DAFF91EF91BF91AF919F919F
:100F60008F917F916F915F914F913F912F910F9052
:100F70000FBE0F901F9018951F920F920FB60F92F1
:100F800011242F933F934F935F936F937F938F938E
:100F90009F93AF93BF93EF93FF9381E08093460AB3
:100FA0008091003E87FD05C08F5F8431A1F0809362
:100FB000003E9ED0FF91EF91BF91AF919F918F9195
:100FC0007F916F915F914F913F912F910F900FBE45
:100FD0000F901F9018951092003E8ED9EACF83CEC5
:100FE000633110F061E010CF6623E9F36231D1F391
:100FF00058CF8FEF0000000000000000000000004C
:1010000000000000000000000000000000000000E0
:1010100000000000815071F7A2DE2DD86BE274E968
:1010200088E694E952DC80930E3E90930F3E62E195
:1010300074E98CE594E949DC8093103E9093113E6D
:1010400069EF73E980E594E940DC80930C3E90936E
:101050000D3E60EE73E984E494E937DC80930A3E48
:1010600090930B3E88E794E93FDD8093083E909390
:10107000093E789404C08091123E811131C0000075
:101080000000000000000000000000000000000060
:10109000000000000000000000000000000087D8F1
:1010A000C5D88091153E882331F31092153E80916A
:1010B000103E9091113EB2DC80910E3E90910F3E19
:1010C000ADDC80910C3E90910D3EA8DC80910A3EF3
:1010D00090910B3EA3DC8091123E882309F4CFCF80
:1010E0001092123E8091083E9091093E55DDC7CF87
:1010F0008091163E9091173E01968D3023E0920725
:10110000D1F08093163E9093173E8091133E9091BC
:10111000143E01968D3023E0920729F08093133E10
:101120009093143E08951092133E1092143E81E065
:101130008093123E08951092163E1092173E81E061
:101140008093153EE2CF0F931F93CF93DF93869F3B
:101150008001879F100D969F100D1124C8010DD09E
:10116000EC01009721F0A80160E070E030D1CE01E1
:10117000DF91CF911F910F9108950F931F93CF93FC
:10118000DF938230910510F482E090E0E091F73E29
:10119000F091F83E20E030E0A0E0B0E0309719F1A7
:1011A000408151810281138148175907C8F0841783
:1011B000950769F4109731F012960C9312971396D5
:1011C0001C9327C00093F73E1093F83E22C02115D0
:1011D000310519F04217530718F49A01BD01EF01C8
:1011E000DF01F801DBCF21153105F9F0281B390BA0
:1011F0002430310580F48A819B816115710521F0CD
:10120000FB018283938304C08093F73E9093F83E62
:10121000FE01329644C0FE01E20FF31F81939193C9
:1012200022503109288339833AC02091F53E30910C
:10123000F63E232B41F42091033E3091043E20934F
:10124000F53E3093F63E2091013E3091023E21154D
:10125000310541F42DB73EB74091053E5091063E11
:10126000241B350BE091F53EF091F63EE217F307B3
:10127000A0F42E1B3F0B2817390778F0AC014E5F06
:101280005F4F2417350748F04E0F5F1F4093F53E20
:101290005093F63E8193919302C0E0E0F0E0CF01DD
:1012A000DF91CF911F910F910895CF93DF93009716
:1012B00009F481C0FC01329712821382A091F73E9B
:1012C000B091F83E109781F420813181820F931FF5
:1012D0002091F53E3091F63E2817390751F5E093FD
:1012E000F53EF093F63E67C0ED0120E030E0CE170A
:1012F000DF0740F44A815B819E0141155105F1F001
:10130000EA01F5CFC283D38340815181840F951FB9
:10131000C817D90759F488819981840F951F0296BF
:10132000808391838A819B818283938321153105F8
:1013300029F4E093F73EF093F83E3DC0E901EA83DB
:10134000FB8349915991C40FD51FEC17FD0761F438
:1013500080819181840F951F0296E901888399838A
:10136000828193818A839B83E0E0F0E012968D91E5
:101370009C911397009719F0FD01DC01F7CF8D9137
:101380009C9111979D012E5F3F4F820F931F2091DB
:10139000F53E3091F63E2817390769F4309729F465
:1013A0001092F73E1092F83E02C012821382A09370
:1013B000F53EB093F63EDF91CF910895FB01DC013D
:1013C00002C001900D9241505040D8F70895DC01C1
:1013D00001C06D9341505040E0F70895F894FFCF5D
:1013E000308031030030803306003080230200302B
:1013F00080430200000000000030800103003080C4
:101400000306003080230200308043020000000009
:10141000000030801103003080130600308023026A
:1014200000308043020000000000003080210300F3
:1014300030802302003080410300308043020000EE
:10144000000000007301010174940B9294058D94C7
:101450007201010175940B9294058D947101010143
:1014600076940B9294058D947001010177940B9200
:1014700094058D9408040201800000060E18222DA8
:10148000394653606F7F8EA0B2BFD8EDFF000D0BC1
:0D149000070E01060B0F1200000000000007
:08149D00FF0000F93E200000F1
:00000001FF
